:020000021000EC
:1000B000011126E4856422E89384041C138401E47E
:1000C000268506EC04ECEFF0134508E811E9233C23
:1000D000040023340400E2604264A264056182806B
:1000E00008E404E123340500FDB703C701B001E7CC
:1000F00005472380E1B003C781AF01E70547238CA3
:10010000E1AE03C701AF01E705472388E1AE03C7AE
:1001100081AE01E705472384E1AE03C701AE01E7E5
:1001200005472380E1AE03C781AD01E70547238C76
:10013000E1AC03C701AD01E705472388E1AC03C784
:1001400081AC01E705472384E1AC03C701AC01E7BB
:1001500005472380E1AC03C781AB01E70547238C4A
:10016000E1AA03C701AB01E705472388E1AA03C75A
:1001700081AA01E705472384E1AA828003C701BC65
:1001800001E705472380E1BC03C781BB01E70547C1
:10019000238CE1BA03C701BB01E705472388E1BA15
:1001A00003C781BA01E705472384E1BA03C701BA4F
:1001B00001E705472380E1BA03C781B901E7054795
:1001C000238CE1B803C701B901E705472388E1B8EB
:1001D00003C781B801E705472384E1B803C701B825
:1001E00001E705472380E1B803C781B701E7054769
:1001F000238CE1B603C701B701E705472388E1B6C1
:1002000003C781B601E705472384E1B6828003C7AF
:1002100001CC01E705472380E1CC03C781CB01E78F
:100220000547238CE1CA03C701CB01E705472388B3
:10023000E1CA03C781CA01E705472384E1CA03C7AE
:1002400001CA01E705472380E1CA03C781C901E765
:100250000547238CE1C803C701C901E70547238887
:10026000E1C803C781C801E705472384E1C882804C
:10027000411122E037C503001386819F938581A534
:100280001305A5D206E4EFE083141386819F026470
:10029000A26037C50300938501A5130585D24101EE
:1002A0006FE0E31203C701D401E705472380E1D4DF
:1002B00003C781D301E70547238CE1D203C701D3EC
:1002C00001E705472388E1D203C781D201E705474B
:1002D0002384E1D203C701D201E705472380E1D29D
:1002E00003C781D101E70547238CE1D003C701D1C2
:1002F00001E705472388E1D003C781D001E705471F
:100300002384E1D08280B70700009387070099C754
:10031000379505001305A5296FF0C45882809761B1
:1003200008009381214D138501A917960800130633
:10033000E68A098E8145EF00043E17F50400130597
:10034000A55619C517950400130565F5EFF08455FA
:10035000EFF0A37202452C000146EF00E0066FE0CB
:10036000230803C701E01DE7411122E03E84B7E7FF
:10037000040006E49387072999C73725070013056A
:100380000500EFD0F37085472380F1E0A26002649E
:10039000410182808280B7E704009387A71B89CB45
:1003A00037250700938581E0130505006FD0F360C2
:1003B0008280011122EC0010AA872326F4FE8147D7
:1003C0003E85626405618280797106F422F026EC34
:1003D0000018B74706009385074CB77709001385C7
:1003E0008705EF2030442A87C9679385C7553A852A
:1003F000EF10F0300145EF70640DAA8781273E852C
:10040000EF00044DB74706009385074EB777090004
:1004100013858705EF2010412A87C9679385C75543
:100420003A85EF10D02D814795A0AA86AE873E87EA
:1004300085476306F700B6873E85EFC0735DB687D4
:100440003E85EF00D048AA87233CF4FC833784FD27
:100450009C63C1079C63033584FD8297AA87BE8590
:1004600013858164EF20103C2A87C9679385C7559F
:100470003A85EF10D028EF00B04B814701A8AA843D
:10048000EF00104BA6873E85EFC093583E85A270C3
:100490000274E26445618280011106EC22E80010DA
:1004A000AA872E872326F4FEBA872324F4FE832707
:1004B000C4FE1B87070085476317F702832784FE66
:1004C0001B870700C167FD17631FF700138581E3D2
:1004D000EF00B04D1386819F938581E3C567138537
:1004E000072FEFD0D36E0100E26042640561828085
:1004F000411106E422E00008C1679385F7FF054536
:10050000EFF09FF9A26002644101828082808280C4
:100510003745060013050567828037450600130539
:1005200085658280A1456F00F21EA1456F00921E75
:100530008280A1456F00121E8280A1456F00921D2E
:1005400082808280B74706009387076D1CE16F00A9
:10055000300A411122E006E42A84EFF0BFFE228532
:100560000264A260E14541016F00D21A6303B50243
:10057000834605001307A0028147638DE600411101
:1005800006E4EF10A406A260933715003E854101F2
:10059000828085473E858280397122F826F406FCE8
:1005A0002A84AE84631DC7008C6608653AEC32E885
:1005B00036E4EFF0BFFBA2664266626719E908689D
:1005C0004274E2701C61A685A27403B30704216122
:1005D0000283E2704274A2741945216182805D71C8
:1005E0004AF803398500A2E02E848C6626FCAA8492
:1005F0004A8532F43AF03EEC42E846E436E086E4DE
:10060000EFF0DFF68266A2684268E2670277227640
:100610000DC923B0E80023A4C80063400402229758
:1006200099476303E800854723A8F800A66006649D
:10063000E2744279014561618280F957E318F4FE62
:10064000DDB7631607038C674A8546F442F03AEC3F
:1006500036E832E43EE0EFF07FF182672266C26660
:1006600062670278A27801C523A6C800C1B788686E
:10067000A660E2740C61427903B38503A285066427
:1006800061610283797122F026EC4AE84EE406F4B7
:10069000AA892E84B2843689EF00C07F05E103B5B4
:1006A0000901A28502741C61A270A26903B3070349
:1006B000CA8626864269E26445610283A27002749A
:1006C000E2644269A269456182808280014582803C
:1006D00001458280C1456F00F2031C658C65638310
:1006E000B70283C607001307A0020145638EE60028
:1006F00041113E8506E4EF00746FA26013351500CA
:10070000410182800545828082800147814605053E
:100710008347F5FF13F6F7079B9787013316D6003B
:100720009BD78741518F9D26E3C307FE98E18280C6
:100730008147014705058346F5FF13F6F607331693
:10074000E600D18F1B9686011B5686411D27E34389
:1007500006FE1306F0036369E60093F6060489C6F5
:10076000FD563397E600D98F9CE182801C62397177
:1007700022F83EEC9C6126F42EE49C6B06FCAA84D5
:100780002E8532848297A26501C5E2679C633EECA8
:100790009C60854630089C732685829719C1E26764
:1007A0001CE0E2704274A27421618280397126F4E7
:1007B0004AF006FC22F84EEC930700053289B68415
:1007C000631FF5001305760061991C612105E27035
:1007D00042749CE00279A274E2692161828093777D
:1007E000F5003147AA89636BF70E374706008A0781
:1007F00013078777BA979C432E8482872C00328513
:10080000EFF0BFF0A267E1D713F70907C146631302
:10081000D7004A849B9989019BD98941A297E3D843
:1008200009FA9C636DB72C003285EFF07FF0D9BFD9
:100830008347160003470600A207D98F1305290036
:10084000D9B7034716008347060022075D8F834709
:100850002600C2075D8F83473600E207D98F130554
:10086000490055B78347160003470600A207D98FF2
:100870009B9707019BD70741D1B7034716008347D2
:10088000060022075D8F83472600C2075D8F8347DE
:100890003600E207D98F8127D9B70347160083476F
:1008A00006001305860022075D8F83472600C207D6
:1008B0005D8F83473600E207D98F03474600021752
:1008C000D98F0347560022175D8F83476600C217F2
:1008D0005D8F83477600E217D98F35B7EFD0532964
:1008E000011106EC034785029307F00F6303F70439
:1008F0009377770089466380D70463E6F600214644
:1009000099CBEFD0F3268D4611466386D7009146EA
:100910002146E398D7FE3306B6021C6D0C693400FD
:100920003A853386C740EFF07FE8E26022650561D3
:1009300082800146CDB70946F9BF397122F8006DB2
:1009400093C6F6FF26F44AF006FCAA842E8932E408
:1009500036942C082285EFF05FDBE2652A8499CD7E
:100960002685EFF0FFF73000CA85EFF03FE075D144
:10097000E2704274A2740279216182800145CDBF88
:100980001307F00FAA876305E50493F7070713071A
:1009900000022E85638AE702636AF70095CB414720
:1009A0006388E702411106E4EFD0931C13070004AB
:1009B000638EE70013070005638CE700130700034D
:1009C000E392E7FE6FC003386FC023386FC0C335B2
:1009D00001458280011122E82E84AA85228506EC39
:1009E00032E436E0EFF0DFF9AA85228542648266C0
:1009F0002266E26005615DBB397122F826F406FCCF
:100A0000AA843284814711C52EE4EFC0E331A26588
:100A1000AA871CE01386150083C505001307F00F95
:100A20006388E504930684002685EFF0BFFA2A86E2
:100A3000834706001307F00F130516002304F40282
:100A4000638AE7022C08EFF05FCCE267AA971CEC00
:100A5000834705002C080505A304F402EFF0FFCA44
:100A6000E267E270A274AA971CF04274216182804E
:100A70001CE47DBF233C0400E1BF157186EDA2E9B3
:100A8000A6E5CAE14EFD52F956F55AF15EED62E96E
:100A900066E56AE1EEFC02EC02CA8547631AF524BA
:100AA000B747060003BA077B9947BA8436842E8B72
:100AB000329A639AF5026368450303B906FF83A976
:100AC000C6FD83BB86FE8547630309008D47137B04
:100AD0008B0063150B0005476373471D054763993A
:100AE000E71AEF00A24E2685EFC0A323AA8B0DE1E3
:100AF0002145EE604E64AE640E69EA794A7AAA7ABC
:100B00000A7BEA6B4A6CAA6C0A6DE67D2D618280D5
:100B10009000AA852685EFF03FEE2AE40345810682
:100B2000A685EFF0FFE5AAE84C082685EFC0231E56
:100B3000D2472A89226699E31309F5FF8677637EF7
:100B4000F6108345910614100145EFF0BFE8834588
:100B500091062A8634100145EFF0DFE783459106C0
:100B60002A8614180145EFF0FFE62C18EFF0FFB9C4
:100B7000866702772A86BA976374F90006767DBF86
:100B80002277BA97E37CF9FA427963040900A667F1
:100B90003E99E27763850716867AE30B09F4FD1721
:100BA000BE9A638B0A14137C8B00012C631C0C040B
:100BB000854763EE4705186093070402058B19C348
:100BC000833704FB83B907F93EEC814C854D2C102B
:100BD0005685EFF0FFB50C182A8DEFF07FB5A276A1
:100BE000BDC6635BD002B6858800EFF07FCF01C938
:100BF000638009063008CE85EFF05FB731C9A2598E
:100C00008D4785A0B7490600938909577DBFB7492D
:100C100006009389895A55BF63800902631E0C0040
:100C200063EC4D016266CE858800EFF01FD113455D
:100C300015001375F50FD9B7666593C6F6FF2C1826
:100C40003695EFF09FAC62751335150045BF854CA6
:100C5000C277CDC3B30AFD009DBF81490149814AD6
:100C6000854713771B00E30407E60947E382E7E8BB
:100C700085471945E3EF47E7E267232E34FD23302C
:100C800054FF233474FF233CF4FE233824FF95B52E
:100C900063D00904EF00A236EF00604399B5639575
:100CA000E7002285EF00120F63D409029000DE8571
:100CB0002685EFF07FD403458106A685EFF05FCC53
:100CC000AAE803458106A685EFF09FCB2338A4FE52
:100CD0002286A9452685EFB0937E4E86AD452685B2
:100CE000EFB0F37D2685CA85EFC043031D4511B5DE
:100CF0000D4501B5E38E0CDE814989479DB7E309B7
:100D000009DE8149814AD5BF5971A2F0A6EC2A8437
:100D1000CAE8CEE486F4EF00803B833704FF033556
:100D200004FC833984FE8324C4FD033984FC3EF033
:100D3000EF00822AEF00A039EF0040381C61B86B49
:100D400013840707058B11C380631008CE85014506
:100D5000EFF09FCA833504F9A68622860808EFF0D3
:100D6000DFBD19C9EF00E20A2AE4EF00603CEF00A2
:100D7000203C2265EFC0C34937440600A6860146E1
:100D8000930584530808EFF05FBB05C12145EF00D0
:100D9000A025B74706009387075F41661CE113064D
:100DA000E65093058453EF0042034A85EF00821D0D
:100DB0008547797192173EE81C6122F032849C7B52
:100DC000106206F402E402EC34008297C24719472D
:100DD0000145998B6395E700A26705451CE0A27069
:100DE00002744561828005456313C70019458280FE
:100DF000B7570600938787801CE16FF01F8D411164
:100E000022E006E42A84EFF0BFFE22850264A2609D
:100E1000C14541016F0002106303B502834605001E
:100E20001307A0028147638DE600411106E4EF003D
:100E3000E47BA260933715003E854101828085479F
:100E40003E858280397122F826F44AF04EEC06FC89
:100E5000B2843A89468483398500631207038C671C
:100E60004E8536E4EFF05FFBA26611C944C4E27020
:100E70004274A2740279E2690145216182808C6624
:100E80004E85EFF07FF965D585472330240104C4F2
:100E90001CC8F1BF8C650865011132E436E006EC30
:100EA000EFF09FF78266226611C5C1479CEA994719
:100EB00090E29CC6E26005618280797122F026ECA6
:100EC0002E84AA848C65086506F432E436E0EFF0DF
:100ED000BFF405E182668D4763EDD7001C60228573
:100EE00002742266A27003B38702A685E26445619C
:100EF0000283A2700274E26445618280938801E4F7
:100F000083B78800130605FF938501E499C703376B
:100F100005FFB306E60063F6F600233CF5FE90E518
:100F2000828013888800639CD70094679C63233C6D
:100F3000D5FE3E972338E5FE23B4C80082808C6737
:100F400099C563F6B60013888700AE87CDBF639658
:100F5000B6008C6294662E9794E7833708009463FA
:100F6000B385D7006315B600369798E382809C67F7
:100F70002338E5FE233CF5FE8337080090E78280A6
:100F80004105C1476373F50041453D05138701E401
:100F9000937705FF2107086305C91461106563FF96
:100FA000F600130785003285C5BFB305F50090E54F
:100FB000086394E11CE10CE3410582809D8EBD45F0
:100FC000E3E5D5FE10E3CDBF8280411122E013841A
:100FD00001E4086806E409C5EFE07354233804000F
:100FE000A260026441018280411122E013040508DD
:100FF000228506E4EFE03352AA8701E92285EFF06B
:101000003FF8AA8719E1EFF0717C130600088145CB
:101010003E85EFF04370A2600264130505084101AC
:101020008280138701E41C6B130505F863F7A700A2
:10103000186FBA976373F500D1B56FE0534E411145
:101040001305000706E4EFE0134DAA8709E913052D
:101050000007EFF0FFF2AA8719E1EFF031771306EE
:10106000000781453E85EFF0036BA260410182805D
:10107000138701E41C6BAA8663F7A700186FBA9761
:101080006373F500A5BD36856FE07349B75506005B
:1010900041116D4693850587094506E4EF60E441FB
:1010A000EFF0D172B7550600411179469385058559
:1010B000094506E4EF606440EFF05171138501E6E5
:1010C0008280138501E68280033585FF828041118D
:1010D00022E006E42A84EFF0DFFE374606000336FE
:1010E000067B1C601861930604FBB2970546637B80
:1010F000F60019C3EFF0916D14E1A26002643A8525
:1011000041018280832784FD63D207020546BB0725
:10111000F640232CF4FC1C45FD371CC56305D700A5
:101120002338E4FC14E1033784FFC1BF8527D5B71A
:10113000411106E4EFF09FF8186115CBB7460600A1
:1011400083B6067B3C6BB697854663FAF600233080
:101150000500A2601305070541016FC0833B1C57C2
:1011600063DA0700852799E3147314E11CD7A260A2
:1011700041018280FD3781E71C731CE1D9BFE3D7B1
:1011800007FEEFF0B164411106E4EFF09FF308456C
:10119000A2603335A00041018280411106E4EFF0E6
:1011A0005FF2A26008454101828039714EEC83A74D
:1011B00001A906FC22F81B87170026F44AF052E822
:1011C00056E423A8E1A8639C07100547238CE1A0FF
:1011D00083B781A6138501F18C6BEFA0711C83B7D7
:1011E00081A6138501E78C67EFA0911B83B781A6C9
:1011F000138501EC8C6FEFA0B11A938501F137795B
:10120000090013058905EF00D043938501E7138595
:101210000153EF605133938501EC13858164EF0036
:10122000504237750900938501EC130585F4EF00F2
:101230005041938781649453896A13098905B3E601
:10124000560194D323B0270F83B781A6138A015385
:1012500023342A0F8C6B13850100EFA0113283B762
:1012600081A6138501F68C67EFA0313183B781A683
:10127000138501FB377409008C6FEFA01130938543
:101280000100B77409001385044AEF10003E9385EE
:1012900001F63779090013058916EF70112F938530
:1012A00001FB13050428EF10403C377509009385B6
:1012B00001FB13050539EF10403B930704289853B1
:1012C0009384044AE4F33367570198D383A701A9B1
:1012D000130989162334990E852723A8F1A8E270F3
:1012E0004274A2740279E269426AA26A2161828030
:1012F00083A701A99B86F7FF23A8D1A80947639F6D
:10130000E7043775090041111305850506E4EF0070
:10131000B04613858164EF00304637750900130528
:1013200085F4EF007045377509001305054AEF1085
:1013300060473775090013050528EF10A04637757B
:10134000090013050539EF10E04531A0EFF03FD853
:10135000A2604101F1BBA2604101828082803971AB
:1013600022F84AF006FC26F44EEC52E803C981A1AB
:1013700063100516630E09142800EFF01FE3238C99
:1013800001A0377406001304843A23B881F0138552
:1013900001F1EFB0206223B881E6138501E7EFB0D9
:1013A000606123B081EC138501ECEFB0A06037746D
:1013B00006001304844223B0810013850100EFB0BE
:1013C000806023B081F6138501F6EFB0C05F23B8CB
:1013D00081FA138501FBEFB0005F83B781A6930606
:1013E00000408C6B41461385011FEFA0817283B7CB
:1013F00081A6930600408C67214613850105EFA066
:10140000417183B781A6930600408C6F41461385D6
:101410000112EFA00170377509009385011F1305B4
:101420000506EF00E01A9385010513850154EF00CE
:10143000201A9385011213850165EF006019377535
:10144000090093850112130505F5EF00601883B7B5
:1014500081A6930600408C6B414613850146EFA0A0
:10146000D10883B781A6930600408C672146138577
:10147000012CEFA0910783B781A6930600408C6FE3
:10148000414613850139EFA0510637750900938550
:1014900001461305854AEF00405C377509009385C6
:1014A000012C13058517EF00405B37750900938504
:1014B000013913058528EF00405A377509009385D7
:1014C000013913058539EF0040592800EFF05FE23C
:1014D000E27042744A85A2740279E269426A21612B
:1014E00082802A842800EFF0BFE02285EFB05352BB
:1014F000B7570600938707921CE16F30002AB75751
:101500000600938707941CE16F302029411122E0E7
:1015100006E42A84EFF0DFFD22850264A260410127
:101520006FF01126411122E006E42A84EFF03FFD1E
:1015300022850264A26041016FF09124085115894F
:10154000133515008280085115893335A00082803B
:10155000085182807C7599E393E515005C4D0CD1B0
:10156000FD8D89C93755060041111305059506E41F
:10157000EFF0210F82801C51DD8DE9BF1C51CD8F12
:101580001CD15C4DFD8D89C5411106E4EFF0710859
:101590008280085113351500828008511B55154073
:1015A00005898280085115893335A0008280034562
:1015B000050205898280484D82804CCD0C5159BF6F
:1015C000686D8280AA87686DECEF82806875828082
:1015D000411122E006E460756CF58145EFF09FF75C
:1015E0002285A2600264410182807C79011106ECAF
:1015F00022E826E499E3EF20304D3384B700034519
:10160000941311E998633E85B2843863029763842A
:10161000A400A30CA412E2604264A264056182806B
:10162000011122E8607906EC19E0EF20F0498347C8
:10163000840391EF22852EE4EF30404C1C6022851C
:101640004264A265E26003B30703056102832E943E
:1016500003459403E2604264056182808347150E6E
:10166000411122E006E42A8491EB93050002EFF099
:101670003FFB85472300A40EA300F40E0345040E90
:10168000A260026441018280011122E806EC2A84F2
:101690002EE4EFF0BFFCA265E2602300B40E4264CA
:1016A00005618280411122E006E42A84EF20F06F78
:1016B000B7570600938707921CE0233C040C2310C5
:1016C000040E2334040E2338040E233C040E23306E
:1016D0000410A2600264410182806CF582800111D5
:1016E00022E82A842E8526E406ECAE84EFF0D0139F
:1016F0001DC92685EFE0D06C68F82685EFF0D0256F
:1017000015C52685EFF0002768FC2685EFF09029A7
:101710000DC12685EFF0A02A2330A410E2604264B8
:10172000A264056182802338040EC1BF233C040EED
:10173000E9BF23300410DDB7397122F806FC26F426
:101740004AF04EEC52E82A846305B50E03A5050C59
:10175000130A0404A147AE84528963D2A70212057A
:10176000EFF0B10103A7040C2A89AA877D1763480B
:10177000070023B0070023B40700C107C5BF83B922
:1017800084026387090083A74901852723AAF900FA
:1017900022858145EF20307968646307AA0019C16A
:1017A000EFF011622334040C2285EF20107C814776
:1017B0002334340303A7040C9B86070063DEE60092
:1017C000F86413964700B306C90032971063850783
:1017D00090E2186798E6F9BF9C4C2320E40C233470
:1017E000240D1CCC9C6826851309040D1CE89C6400
:1017F0001CE4FC6C7CECEFF07FE6AA852285EFF020
:10180000BFE89385040D2800EF3002042C004A85C0
:10181000EF30C2312800EF300231CA852285EFF067
:101820001FEC89452285EF201070CC4C2285EFF00B
:10183000DFD82285E2704274A2740279E269426ABA
:1018400021618280797122F02E849385050D06F442
:1018500026EC4AE8B2842A89EF20127FA2852686E8
:101860002800EF0092562800EF30E22BA685228553
:10187000EFF0FFE66C7481C926862800EFB040388F
:101880002800EF30422AA27002744A85E26442695D
:10189000456182802A844A85EF30E2282285EFB0B4
:1018A0003317011106EC22E826E42A84AE84EF0007
:1018B000924E9305040D2285EFF07FE264F493B419
:1018C000140004D0233C040C2310040E232E040027
:1018D000E2604264A26405618280797122F02EE4A4
:1018E0002A8406F426ECEF20504CB7570600A26578
:1018F000938707921CE0233C040C2310040E23342E
:10190000040E2338040E233C040E233004102285D9
:10191000EFF03FF901A8AA842285EF201068268500
:10192000EFB0130FA2700274E2644561828001116E
:1019300006EC22E826E42A84AE84EF20906B93051F
:10194000040D2285EFF0BFD9FC6C23BC040CE260CF
:101950007CEC83C7040E2300F40E83C7140E2334DB
:10196000040EA264A300F40E426405618280C1B734
:10197000011106EC22E826E42E84AA84EF203071BF
:101980009385040D2685EFF09FD59305040D2285E0
:10199000EFF0FFD4786CFC6CE260F8EC0347040EC7
:1019A0007CEC83C7040E2380E40E0347140E23004F
:1019B000F40E83C7140EA380E40EA264A300F40EF9
:1019C00042640561828008511589133515008280B3
:1019D000085115893335A0008280085182807C75BA
:1019E00099E393E515005C4D0CD1FD8D89C9375500
:1019F000060041111305059506E4EFE0914682804B
:101A00001C51DD8DE9BF1C51CD8F1CD15C4DFD8D6E
:101A100089C5411106E4EFF0C13F828008511335BA
:101A20001500828008511B55154005898280085198
:101A300015893335A000828003450502058982801F
:101A4000484D82804CCD0C5159BF686D8280AA8769
:101A5000686DECEF828068758280411122E006E4B7
:101A600060756CF58145EFF09FF72285A2600264F6
:101A700041018280687909E5411106E4EF20D00434
:101A80001C6103B307060283687909E5411106E486
:101A9000EF2090031C6103B3070502838347450EC3
:101AA000411122E006E42A8491EB93050002EFF055
:101AB000BFFD85472320A40E2302F40E0325040E48
:101AC000A260026441018280011122E806EC2A84AE
:101AD0002EE4EFF0BFFCA265E2602320B40E426466
:101AE00005618280411122E006E42A84EF20F02B78
:101AF000B7570600938707941CE0233C040C23206F
:101B0000040E2302040E2334040E2338040E233C57
:101B1000040E23300410A2600264410182806CF53F
:101B20008280011122E82A842E8526E406ECAE8408
:101B3000EF5020761DC92685EF50E03468F82685E1
:101B4000EF50300815C52685EF50604668FC2685A5
:101B5000EF50F00B0DC12685EF50004A2330A41042
:101B6000E2604264A264056182802338040EC1BF32
:101B7000233C040EE9BF23300410DDB7397122F88D
:101B800006FC26F44AF04EEC52E82A846305B50EB2
:101B900003A5050C130A0404A147AE84528963D23D
:101BA000A7021205EFF0613D03A7040C2A89AA875A
:101BB0007D176348070023B0070023B40700C1075F
:101BC000C5BF83B984026387090083A749018527BC
:101BD00023AAF90022858145EF20F0346864630769
:101BE000AA0019C1EFF0D11D2334040C2285EF2087
:101BF000D03781472334340303A7040C9B860700A6
:101C000063DEE600F86413964700B306C900329716
:101C10001063850790E2186798E6F9BF9C4C232073
:101C2000E40C2334240D1CCC9C6826851309040D78
:101C30001CE89C641CE4FC6C7CECEFF03FE6AA859D
:101C40002285EFF07FE89385040D2800EF20D23F36
:101C50002C004A85EF20926D2800EF20D26CCA85B7
:101C60002285EFF01FEC89452285EF20D02BCC4C4C
:101C70002285EFF03FDD2285E2704274A274027982
:101C8000E269426A21618280797122F02E84938513
:101C9000050D06F426EC4AE8B2842A89EF20D23AF0
:101CA000A28526862800EF0052122800EF20B26796
:101CB000A6852285EFF0FFE66C7481C92686280090
:101CC000EFB0A01D2800EF201266A27002744A85B2
:101CD000E2644269456182802A844A85EF20B264C9
:101CE0002285EFB0E352011106EC22E826E42A84B3
:101CF000AE84EF00520A9305040D2285EFF07FE2D7
:101D000064F493B4140004D02320040E2302040EC0
:101D1000233C040C232E0400E2604264A2640561AB
:101D20008280797122F02EE42A8406F426ECEF20DA
:101D3000D007B7570600A265938707941CE0233CA1
:101D4000040C2320040E2302040E2334040E233833
:101D5000040E233C040E233004102285EFF0BFF85C
:101D600001A8AA842285EF2050232685EFB0434A9C
:101D7000A2700274E26445618280011106EC22E8DF
:101D800026E42A84AE84EF20D0269305040D228514
:101D9000EFF03FD9FC6C23BC040CE2607CEC83A721
:101DA000040E2320F40E83C7440E2334040EA264D1
:101DB0002302F40E426405618280C1B7011106EC72
:101DC00022E826E42E84AA84EF20702C9385040D4B
:101DD0002685EFF01FD59305040D2285EFF07FD403
:101DE000786CFC6CE260F8EC0327040E7CEC83A7B3
:101DF000040E23A0E40E0347440E2320F40E83C7F1
:101E0000440E2382E40EA2642302F40E42640561B0
:101E1000828009E5411106E4EF20004B1C6103B309
:101E2000070502839C61411106E41CE183B787FE2C
:101E30009865B2853E9518E1EFF0BFA6A26041011A
:101E40008280797122F01304850026ECAA84228511
:101E50002EE406F4EFF01F85B7570600938787A09E
:101E60009CE0A265B7570600938707A39CE42285F0
:101E7000EFF03FA301A8AA842285EFF06FE7268543
:101E8000EFB00339A2700274E2644561828091ED83
:101E90001C621CE185E1186683B787FEAA9798E368
:101EA000898999CD21056FF0AFE4B7570600938774
:101EB00087A0C5B737570600130707A3A147F9BF87
:101EC000828001468945E1B703330500033383FE71
:101ED0001A95C5BF411122E006E42A84EFF07FFE87
:101EE00022850264A26041016FF08109033305007D
:101EF000033383FE1A95F9BF2E86814549BF2E8391
:101F000002831C61411122E02A8403B587FE06E4A6
:101F1000229582952285A2600264410182801C6123
:101F2000411122E02A8403B587FE06E422958295BA
:101F30002285A2600264410182801C61011122E8B5
:101F400083B787FE2A8426E4AA97E87706ECB28452
:101F5000EFA0F061638DA4001C60E260A26403B591
:101F600087FE85452295426405616FF0CFE0E2600F
:101F70004264A264056182801C61011122E883B77A
:101F800087FE2A8406ECAA97E87709CDEFA01050C7
:101F9000FD576319F5001C60854503B587FE229542
:101FA000EFF06FDD2285E260426405618280854743
:101FB0006393F502EFF0AF911C60854503B587FE92
:101FC0002295EFF0AFDBEFE0D1642AE4EFF04F961B
:101FD0002265EFB0E323EFF08F8F1C60854503B5DA
:101FE00087FE2295EFF08FD9EFF08F9465BF2AE43A
:101FF000EFF00F94F1BF1C615D7126FC83B787FE83
:1020000086E4A2E0AA97845395889DE02A84E87725
:10201000C14605468145EFA0B0459B8405008195EA
:10202000A660066426D42ED6A275E2746161828011
:10203000814581447D55EDB785476393F502EFF007
:102040000F891C60854503B587FE2295EFF00FD3FD
:10205000EFE0315C2AE4EFF0AF8D2265EFB0431B77
:10206000EFF0EF861C60854503B587FE2295EFF003
:10207000EFD0EFF0EF8B814575BF2AE4EFF04F8B87
:10208000E9BF1C61397122F883B787FE06FC2EE890
:10209000AA97985332EC2A84158B0DE3E877C14652
:1020A000EFA0D03D2AF02EF4FD576319F5001C6017
:1020B000914503B587FE2295EFF0EFCB2285E270C4
:1020C00042742161828085476393F502EFF02F808F
:1020D0001C60854503B587FE2295EFF02FCAEFE01F
:1020E00051532AE4EFF0CF842265EFB06312EFE0A2
:1020F0001FFE1C60854503B587FE2295EFF00FC8D3
:10210000EFF00F8365BF2AE4EFF08F82F1BF1C610F
:10211000797122F083B787FE06F42A84AA97985330
:10212000158B0DE3E877C146EFA090342AE82EEC3A
:10213000FD576319F5001C60914503B587FE229594
:10214000EFF06FC32285A2700274456182808547DB
:102150006393F502EFE0BFF71C60854503B587FE8A
:102160002295EFF0AFC1EFE0D14A2AE4EFE05FFC47
:102170002265EFB0E309EFE09FF51C60854503B5EC
:1021800087FE2295EFF08FBFEFE09FFA65BF2AE44C
:10219000EFE01FFAF1BF9C61411106E41CE183B737
:1021A00087FE986581453E9518E1EFF08FEFA260BC
:1021B00041018280011122E81304850026E4AA84EB
:1021C000228506ECEFF00FCEB7570600938787A065
:1021D0009CE0B7570600938707A39CE481452285BE
:1021E000EFF02FEC01A8AA842285EFF06FB02685CE
:1021F000EFB00302E2604264A264056182809C61E8
:102200001CE183B787FE98653E9518E182804111F5
:1022100022E02A84210506E4EFF0CFC8B757060074
:10222000938787A01CE0B7570600938707A31CE499
:10223000A2600264410182809C61411106E41CE1BC
:1022400083B787FE98653E951C6218E183B587FECB
:10225000B295EFF0CFEDA26041018280797122F05A
:102260001304850026ECAA8422852EE406F4EFF000
:102270006FC3B7570600938787A0A2659CE0B75746
:102280000600938707A39CE49C61228583B787FEA1
:10229000BE95EFF0CFE901A8AA842285EFF04FA503
:1022A0002685EFA0F376A2700274E2644561828015
:1022B0009C6103B787FE1C61BA9583B787FE3E9584
:1022C0006FF00FEB411122E006E42A84EFF05FFE8D
:1022D0002285A2600264410182809C61011122E892
:1022E00083B787FE26E406ECAE97AA842300050098
:1022F0000CE5E86F2E8409C59C5399E3EFF0DFC726
:102300001C6003B587FE22951C5189EBE260426494
:1023100085472380F400A264056182804264E26004
:10232000A264914505616FF00FA5011122E80065D7
:1023300006EC26E41C6083B787FE3E941C4C139782
:10234000270363590702AA84EFE0FFE305E56874F9
:1023500015C1EFA0B013FD57631EF5009C644264E5
:10236000E2609863A2648545033587FE05613E956A
:102370006FF06FA0E2604264A264056182807971AF
:1023800022F026EC2A84AE84AA850A8506F4EFF0B2
:10239000DFF4834701009DC385CC1C60268583B78D
:1023A00087FEA297EC77EFA0302E11E991451C60D3
:1023B00003B587FE2295EFF00F9C11A091C80A8506
:1023C000EFF0BFF62285A2700274E264456182805C
:1023D0008545F1BF85476396F502EFE05FCF1C604E
:1023E000854503B587FE2295EFF04F99EFE0712206
:1023F0002A84EFE0FFD30A85EFF03FF32285EFA0B8
:102400003361EFE0DFCC1C60914503B587FE229578
:10241000EFF0CF96EFE0DFD15DB72A84EFE05FD138
:10242000D9BF2A84C9BF797122F026EC2A84AE84F0
:10243000AA850A8506F4EFF05FEA83470100ADCF75
:102440001C60A68583B787FEA297E877EFA0F00F00
:10245000FD576313F5061C60854503B587FE22957D
:10246000EFF06F9191A885476396F502EFE03FC6C4
:102470001C60854503B587FE2295EFF02F90EFE0B5
:1024800051192A84EFE0DFCA0A85EFF01FEA22859E
:10249000EFA01358EFE0BFC31C60854503B587FE6E
:1024A0002295EFF0AF8DEFE0BFC839A02A84EFE0AE
:1024B0003FC8D9BF2A84C9BF0A85EFF01FE722852C
:1024C000A2700274E26445618280397122F826F4B8
:1024D0002A84AE84AA85080832E406FCEFF0FFDF08
:1024E000834701012266B9CFA6852285EFF0FFA4BC
:1024F00091A885476396F502EFE07FBD1C60854596
:1025000003B587FE2295EFF06F87EFE091102A84E4
:10251000EFE01FC20808EFF05FE12285EFA0534F04
:10252000EFE0FFBA1C60854503B587FE2295EFF00A
:10253000EF84EFE0FFBF39A02A84EFE07FBFD9BF6F
:102540002A84C9BF0808EFF05FDE2285E27042747A
:10255000A274216182800345050082801C61011103
:1025600022E883B787FE06EC26E4AA97E07B19E011
:10257000EF10905583478403AA8481CF83453404A8
:102580002685EFF05FEA4264E260A26405616FF0C5
:10259000BF9E2285EF2080561C60A94522859C7B2A
:1025A0008297AA85F1BF81456FF0FFE76FF0DF9C4E
:1025B0001C61411122E02A8403B587FE93F5F50FD3
:1025C00006E42295EFF04F8C2285A260026441015F
:1025D00082801861033787FEB307E500984FD98DD5
:1025E0008CCF8280186193C5F5FF033787FEB30750
:1025F000E500984FF98D8CCF82801C618125A14622
:1026000003B787FE930700042A97638BD500A9467A
:1026100089476387D500C146A1476383D5008147B9
:10262000144F93F656FBD58F1CCF828018618125FD
:10263000033787FEB307E5008CE7828018618125A8
:10264000033787FEB307E5008CEB82809C61411164
:1026500006E41CE183B787FE9865B2853E9518E1D4
:10266000EFF06FE8A26041018280797122F01304DB
:10267000850026ECAA8422852EE406F4EFF08FC6AE
:10268000B7570600938787A69CE0A265B757060058
:10269000938707A99CE42285EFF0EFE401A8AA84C0
:1026A0002285EFE0DFE52685EFA09336A270027465
:1026B000E2644561828091ED1C621CE185E118664F
:1026C00083B787FEAA9798E3898999CD21056FE0A2
:1026D0001FE3B7570600938787A6C5B7375706008D
:1026E000130707A9A147F9BF8280014689456FF00A
:1026F0009FFC03330500033383FE1A95FDB7411198
:1027000022E006E42A84EFF05FFE22850264A260E4
:1027100041016FE0F10603330500033383FE1A9590
:10272000F9BF2E8681456FF01FF92E8302831C614D
:10273000411122E02A8403B587FE06E422958295A2
:102740002285A2600264410182801C61411122E065
:102750002A8403B587FE06E4229582952285A2602D
:102760000264410182801C61011122E883B787FE67
:102770002A8426E4AA97E87706ECB284EFA0F00852
:10278000638DA4001C60E260A26403B587FE8545EA
:102790002295426405616FF0AFA6E2604264A264D4
:1027A000056182801C61011122E883B787FE2A84BB
:1027B00006ECAA97E87709CDEFA0E076FD576319FC
:1027C000F5001C60854503B587FE2295EFF04FA309
:1027D0002285E26042640561828085476393F50249
:1027E000EFE0FF8E1C60854503B587FE2295EFF074
:1027F0008FA1EFE001622AE4EFE09F932265EFA052
:102800003321EFE0DF8C1C60854503B587FE229500
:10281000EFF06F9FEFE0DF9165BF2AE4EFE05F919B
:10282000F1BF1C615D7126FC83B787FE86E4A2E0E0
:10283000AA97845395889DE02A84E877C146054687
:102840008145EFA0806C9B8405008195A66006649D
:1028500026D42ED6A275E2746161828081458144BE
:102860007D55EDB785476393F502EFE05F861C6009
:10287000854503B587FE2295EFF0EF98EFE06159AB
:102880002AE4EFE0FF8A2265EFA09318EFE03F848F
:102890001C60854503B587FE2295EFF0CF96EFE0EB
:1028A0003F89814575BF2AE4EFE09F88E9BF1C613D
:1028B000397122F883B787FE06FC2EE8AA97985351
:1028C00032EC2A84158B0DE3E877C146EFA0A064B3
:1028D0002AF02EF4FD576319F5001C60914503B5ED
:1028E00087FE2295EFF0CF912285E270427421613C
:1028F000828085476393F502EFE06FFD1C6085459C
:1029000003B587FE2295EFF00F90EFE081502AE4A7
:10291000EFE01F822265EFA0B30FEFE04FFB1C60DA
:10292000854503B587FE2295EFF0EF8DEFE05F80E0
:1029300065BF2AE4EFE0CFFFF1BF1C61797122F09F
:1029400083B787FE06F42A84AA979853158B0DE364
:10295000E877C146EFA0605B2AE82EECFD576319CB
:10296000F5001C60914503B587FE2295EFF04F8975
:102970002285A27002744561828085476393F502C7
:10298000EFE0EFF41C60854503B587FE2295EFF07C
:102990008F87EFE001482AE4EFE08FF92265EFA08E
:1029A0003307EFE0CFF21C60854503B587FE229523
:1029B000EFF06F85EFE0CFF765BF2AE4EFE04FF768
:1029C000F1BF9C61411106E41CE183B787FE986565
:1029D00081453E9518E1EFF00FB1A2604101828080
:1029E000011122E81304850026E4AA84228506EC5E
:1029F000EFF04F8FB7570600938787A69CE0B75735
:102A00000600938707A99CE481452285EFF0AFADCE
:102A100001A8AA842285EFE09FAE2685EFA0437F20
:102A2000E2604264A264056182809C611CE183B71C
:102A300087FE98653E9518E18280411122E02A8444
:102A4000210506E4EFF00F8AB7570600938787A6A3
:102A50001CE0B7570600938707A91CE4A260026434
:102A6000410182809C61411106E41CE183B787FE2D
:102A700098653E951C6218E183B587FEB295EFF02C
:102A8000CFAFA26041018280797122F013048500EA
:102A900026ECAA8422852EE406F4EFF0AF84B75723
:102AA0000600938787A6A2659CE0B7570600938728
:102AB00007A99CE49C61228583B787FEBE95EFF051
:102AC000CFAB01A8AA842285EFE07FA32685EFA0E3
:102AD0002374A2700274E264456182809C6103B732
:102AE00087FE1C61BA9583B787FE3E956FF00FADE8
:102AF000411122E006E42A84EFF05FFE2285A26005
:102B00000264410182809C61011122E883B787FE43
:102B100026E406ECAE97AA84230005000CE5E86FD6
:102B20002E8409C59C5399E3EFF0DFC71C6003B501
:102B300087FE22951C5189EBE26042648547238021
:102B4000F400A264056182804264E260A26491455F
:102B500005616FE0FFEA011122E8006506EC26E45A
:102B60001C6083B787FE3E941C4C13972703635960
:102B70000702AA84EFE02FE105E5687415C1EFA014
:102B8000803AFD57631EF5009C644264E2609863DE
:102B9000A2648545033587FE05613E956FE05FE6DB
:102BA000E2604264A26405618280797122F026ECC1
:102BB0002A84AE84AA850A8506F4EFF0DFF4834701
:102BC00001009DC385CC1C60268583B787FEA29734
:102BD000EC77EFA0A05511E991451C6003B587FE85
:102BE0002295EFE0FFE111A091C80A85EFF0BFF652
:102BF0002285A2700274E264456182808545F1BF3E
:102C000085476396F502EFE08FCC1C60854503B5E0
:102C100087FE2295EFE03FDFEFE0A11F2A84EFE07F
:102C20002FD10A85EFF03FF32285EFA0635EEFE03E
:102C30000FCA1C60914503B587FE2295EFE0BFDC0B
:102C4000EFE00FCF5DB72A84EFE08FCED9BF2A84A3
:102C5000C9BF797122F026EC2A84AE84AA850A8540
:102C600006F4EFF05FEA83470100B5CF1C60A6854C
:102C700083B787FEA297E877EFA020370125FD579D
:102C80006313F5061C60854503B587FE2295EFE0CA
:102C90003FD791A885476396F502EFE04FC31C60CC
:102CA000854503B587FE2295EFE0FFD5EFE061167D
:102CB0002A84EFE0EFC70A85EFF0FFE92285EFA055
:102CC0002355EFE0CFC01C60854503B587FE2295F4
:102CD000EFE07FD3EFE0CFC539A02A84EFE04FC506
:102CE000D9BF2A84C9BF0A85EFF0FFE62285A2700A
:102CF0000274E26445618280397122F826F42A84E4
:102D0000AE84AA85080832E406FCEFF0DFDF8347D3
:102D100001012266B9CFA6852285EFF0DFA491A834
:102D200085476396F502EFE08FBA1C60854503B5D1
:102D300087FE2295EFE03FCDEFE0A10D2A84EFE082
:102D40002FBF0808EFF03FE12285EFA0634CEFE0D2
:102D50000FB81C60854503B587FE2295EFE0BFCA1A
:102D6000EFE00FBD39A02A84EFE08FBCD9BF2A84E1
:102D7000C9BF0808EFF03FDE2285E2704274A274FA
:102D8000216182800345050082801C61411122E09F
:102D900083B787FE2A84A945AA97E87B06E4EFF06B
:102DA0004F87AA852285EFF0DFEA0264A260410125
:102DB0006FF05F9F81456FF0DFE96FF0BF9E1C6190
:102DC000411122E02A8403B587FE812506E422957D
:102DD000EFE09FCF2285A2600264410182801861EA
:102DE000033787FEB307E500984FD98D8CCF8280DB
:102DF000186193C5F5FF033787FEB307E500984FC9
:102E0000F98D8CCF82801C618125A14603B787FE96
:102E1000930700042A97638BD500A94689476387E7
:102E2000D500C146A1476383D5008147144F93F66F
:102E300056FBD58F1CCF828018618125033787FE12
:102E4000B307E5008CE7828018618125033787FE90
:102E5000B307E5008CEB82801C61797122F02A8433
:102E600003B587FE26EC4AE822954EE406F4AE84CC
:102E7000EFE0CFFE2A89FD59635B90021C60CA8592
:102E800083B787FEA297E877EF90306C631F350118
:102E90001C60A270E26403B587FE4269A2692295B4
:102EA0000274854545616FE00FEDFD14F1B7A27026
:102EB0000274E2644269A269456182801C61011169
:102EC00022E883B787FE2A8426E4AA97E87706ECEF
:102ED000B284EF90D069638DA4001C60E260A264AC
:102EE00003B587FE85452295426405616FE0AFE832
:102EF000E2604264A26405618280397122F852E87E
:102F00002A842E8AAA850A8526F406FC4AF04EEC0D
:102F1000B284EFF08FBC83470100B5CF1C6083B74C
:102F200087FEA29783B9070163DC340503A98701F3
:102F3000930700021379090B631EF9001C6083B725
:102F400087FEA2979C53B1E32686D2852285EFF0B7
:102F5000FFF639A0B38599402285EFF0FFEFF9BF66
:102F6000930700026313F9021C6083B787FEA297E0
:102F70009C5381EFB38599402285EFF0FFED31A09E
:102F80002686D2852285EFF07FF31C6083B787FE0B
:102F9000A29723B807000A85EFF02FB92285E270C7
:102FA0004274A2740279E269426A21618280854793
:102FB0006396F502EFE0AF911C60854503B587FE8F
:102FC0002295EFE0AFDBEFD0D1642A84EFE04F969B
:102FD0000A85EFF08FB52285EFA08323EFE02F8FD6
:102FE0001C60854503B587FE2295EFE02FD9EFE001
:102FF0002F9455B72A84EFE0AF93D9BF2A84C9BF75
:103000000111A307B10005469305F10006ECEFF0AE
:10301000DFEEE260056182806FF09FFE93F5F50FB1
:103020006FF01FFE011122E806EC2A8489ED1C6175
:10303000854503B587FE2295EFE0EFD32285E26058
:103040004264056182802E852EE4EFF04371A26513
:103050002A862285EFF07FEAD5B76FF0BFFC6FF0CC
:103060007FFC9C6183B787FEBE95FC751CE193B71E
:1030700017002304F50082801D71A2E84EFC2A840B
:10308000AE89AA850A8586ECA6E4CAE0EFF0EFA433
:1030900083470100CDC71C6083B787FEA29703B9A1
:1030A000870F63110902EF10202285476397F50609
:1030B000EFE0EF811C60854503B587FE2295EFE0C8
:1030C000EFCB89A00808A285EFF0BFF91C6083B49C
:1030D00087FEA2942685EFE06FD8C26562662A87D4
:1030E000CE87A6864A85EFC0905D2EF42AF093F530
:1030F000F50FB1C51C60854503B587FE2295EFE04D
:103100008FC735A8EFD0F1502A84EFE06F820A858F
:10311000EFF0AFA12285EFA0A30FEFD05FFB1C6003
:10312000854503B587FE2295EFE04FC5EFE04F8060
:1031300039A02A84EFD0DFFFD9BF2A84C9BF0A850E
:10314000EFF0AF9E2285E6604664A6640669E279E8
:10315000256182806FF05FF21C61130600042A87EC
:1031600083B787FEAE86AA979C4F93F7A704638523
:10317000C70021466396C70093950603C1913A851F
:103180006FF09FEF1C61130600042A8783B787FE48
:10319000AE86AA979C4F93F7A7046385C700214684
:1031A0006396C7009395060281913A856FF0DFEC34
:1031B0001D71A2E84EFC2A84AE89AA850A8586EC98
:1031C000A6E4CAE0EFF06F9183470100CDC71C6011
:1031D00083B787FEA29703B9870F63110902EF1027
:1031E000A00E85476397F506EFD07FEE1C608545FE
:1031F00003B587FE2295EFE06FB889A00808A28585
:10320000EFF03FE61C6083B487FEA2942685EFE0D2
:10321000EFC4C26562662A87CE87A6864A85EFC05C
:10322000304B2EF42AF093F5F50FB1C51C6085459F
:1032300003B587FE2295EFE00FB435A8EFD0713DBE
:103240002A84EFD0FFEE0A85EFF02F8E2285EF90D3
:10325000337CEFD0DFE71C60854503B587FE229500
:10326000EFE0CFB1EFD0DFEC39A02A84EFD05FECF4
:10327000D9BF2A84C9BF0A85EFF02F8B2285E6606B
:103280004664A6640669E279256182806FF05FF288
:103290006FF01FF2821581916FF09FF11D71A2E80E
:1032A0004EFC2A84AE89AA850A8586ECA6E4CAE08B
:1032B000EFF0AF8283470100CDC71C6083B787FE64
:1032C000A29703B9870F63110902EF00F07F8547CA
:1032D0006397F506EFD0BFDF1C60854503B587FE19
:1032E0002295EFE0AFA989A00808A285EFF07FD76B
:1032F0001C6083B487FEA2942685EFE02FB6C265DA
:1033000062662A87CE87A6864A85EFC0303A2EF4B9
:103310002AF093F5F50FB1C51C60854503B587FE0E
:103320002295EFE04FA535A8EFD0B12E2A84EFD03B
:103330003FE00A85EFE07FFF2285EF90736DEFD0CD
:103340001FD91C60854503B587FE2295EFE00FA3CA
:10335000EFD01FDE39A02A84EFD09FDDD9BF2A84A9
:10336000C9BF0A85EFE07FFC2285E6604664A6645B
:103370000669E279256182806FF05FF21D71A2E833
:103380004EFC2A84AE89AA850A8586ECA6E4CAE0AA
:10339000EFE0BFF483470100CDC71C6083B787FE11
:1033A000A29703B9870F63110902EF00F0718547F7
:1033B0006397F506EFD0BFD11C60854503B587FE46
:1033C0002295EFE0AF9B89A00808A285EFF07FC9A6
:1033D0001C6083B487FEA2942685EFE02FA8C26507
:1033E00062662A87CE87A6864A85EFC0902F2EF484
:1033F0002AF093F5F50FB1C51C60854503B587FE2E
:103400002295EFE04F9735A8EFD0B1202A84EFD076
:103410003FD20A85EFE07FF12285EF90735FEFD016
:103420001FCB1C60854503B587FE2295EFE00F9505
:10343000EFD01FD039A02A84EFD09FCFD9BF2A84E4
:10344000C9BF0A85EFE07FEE2285E6604664A66488
:103450000669E279256182806FF05FF21D71A2E852
:103460004EFC2A84AE89AA850A8586ECA6E4CAE0C9
:10347000EFE0BFE683470100CDC71C6083B787FE3E
:10348000A29703B9870F63110902EF00F063854724
:103490006397F506EFD0BFC31C60854503B587FE73
:1034A0002295EFE0AF8D89A00808A285EFF07FBBE1
:1034B0001C6083B487FEA2942685EFE02F9AC26534
:1034C00062662A87CE87A6864A85EFC0B0222EF490
:1034D0002AF093F5F50FB1C51C60854503B587FE4D
:1034E0002295EFE04F8935A8EFD0B1122A84EFD0B2
:1034F0003FC40A85EFE07FE32285EF907351EFD060
:103500001FBD1C60854503B587FE2295EFE00F8740
:10351000EFD01FC239A02A84EFD09FC1D9BF2A841F
:10352000C9BF0A85EFE07FE02285E6604664A664B5
:103530000669E279256182806FF05FF21D71A2E871
:10354000AA852A840A8522BC86ECA6E4CAE0530434
:10355000A522EFE09FD883470100D5C71C6083B741
:1035600087FEA29703B9870F63110902EF00D055B8
:1035700085476398F506EFD09FB51C60854503B578
:1035800087FE2295EFD09FFF91A00808A285EFF05B
:103590005FAD1C6083B487FEA2942685EFE00F8C9C
:1035A00053058422C26562662A87A6864A85EFC0D3
:1035B00090152EF42AF093F5F50FB1C51C608545E2
:1035C00003B587FE2295EFD01FFB35A8EFD071041D
:1035D0002A84EFD0FFB50A85EFE03FD52285EF9032
:1035E0003343EFD0DFAE1C60854503B587FE2295DF
:1035F000EFD0DFF8EFD0DFB339A02A84EFD05FB38C
:10360000D9BF2A84C9BF0A85EFE03FD22285E66090
:103610004664A66406696234256182806FF01FF2F9
:10362000530505426FF09FF11D71A2E852F82A84FC
:103630002E8AAA850A854EFC86ECA6E4CAE0B289E9
:10364000EFE0BFC983470100D5C71C6083B787FE81
:10365000A29703B9870F63110902EF00F04685476F
:103660006398F506EFD0BFA61C60854503B587FEBD
:103670002295EFD0BFF091A00808A285EFF07F9EC1
:103680001C6083B487FEA2942685EFD03FFDC265FF
:1036900062662A87D2874E88A6864A85EFC0B00721
:1036A0002EF42AF093F5F50FB1C51C60854503B5DE
:1036B00087FE2295EFD03FEC35A8EFD081752A84A4
:1036C000EFD01FA70A85EFE05FC62285EF90533445
:1036D000EFD0FF9F1C60854503B587FE2295EFD094
:1036E000FFE9EFD0FFA439A02A84EFD07FA4D9BF8F
:1036F0002A84C9BF0A85EFE05FC32285E66046647D
:10370000A6640669E279427A256182806FF0DFF172
:103710001D71A2E84EFC2A84AE89AA850A8586EC32
:10372000A6E4CAE0EFE07FBB83470100CDC71C6081
:1037300083B787FEA29703B9870F63110902EF00D1
:10374000B03885476397F506EFD07F981C608545B4
:1037500003B587FE2295EFD07FE289A00808A285F5
:10376000EFF03F901C6083B487FEA2942685EFD0D3
:10377000FFEEC26562662A87CE87A6864A85EFC0BD
:10378000A07A2EF42AF093F5F50FB1C51C6085459B
:1037900003B587FE2295EFD01FDE35A8EFD0616715
:1037A0002A84EFD0FF980A85EFE03FB82285EF909A
:1037B0003326EFD0DF911C60854503B587FE229547
:1037C000EFD0DFDBEFD0DF9639A02A84EFD05F9611
:1037D000D9BF2A84C9BF0A85EFE03FB52285E660DC
:1037E0004664A6640669E279256182806FF05FF223
:1037F0001C61797122F02A8403B587FE26EC4AE821
:1038000022954EE406F4AE84EFE04FA92A89FD59D3
:10381000635C90021C60CA8583B787FEA297E87735
:10382000EF90A07C0125631F35011C60A270E2644B
:1038300003B587FE4269A2692295027485454561F8
:103840006FE00F9CFD14E9B7A2700274E264426954
:10385000A269456182801C61011122E883B787FE5D
:103860002A8426E4AA97E87706ECB284EF90E07900
:10387000638DA4001C60E260A26403B587FE8545E9
:103880002295426405616FE0AF97E2604264A264F2
:1038900005618280397122F852E82A842E8AAA852D
:1038A0000A8526F406FC4AF04EECB284EFF0AFA590
:1038B00083470100B5CF1C6083B787FEA29783B909
:1038C000070163DC340503A987019307000213791C
:1038D000090B631EF9001C6083B787FEA2979C53F7
:1038E000B1E32686D2852285EFF0FFF639A0B385B5
:1038F00099402285EFF0DFEFF9BF930700026313D1
:10390000F9021C6083B787FEA2979C5381EFB385B1
:1039100099402285EFF0DFED31A02686D285228501
:10392000EFF07FF31C6083B787FEA29723B80700F0
:103930000A85EFF04FA22285E2704274A2740279E8
:10394000E269426A2161828085476396F502EFD081
:103950000FF81C60854503B587FE2295EFE0AF8A1E
:10396000EFD0214B2A84EFD0AFFC0A85EFF0AF9E59
:103970002285EF90F309EFD08FF51C60854503B5E4
:1039800087FE2295EFE02F88EFD08FFA55B72A8473
:10399000EFD00FFAD9BF2A84C9BF01112EC6054640
:1039A0006C0006ECEFF01FEFE260056182801C61A5
:1039B000411122E083B787FE2A8406E4AA97E87BB8
:1039C000EFE02FC5AA8522850264A26041016FF055
:1039D000DFFC011122E806EC2A8489ED1C61854593
:1039E00003B587FE2295EFE0AF812285E260426455
:1039F000056182802E852EE4EF50E40EA2652A86B2
:103A00002285EFF03FE9D5B7397122F806FC26F49C
:103A10004AF04EEC52E82A848DE11C61854503B5DD
:103A200087FE2295EFD0DFFD2285E2704274A274FA
:103A30000279E269426A216182802E852E8AEFE056
:103A40001352DD578D83AA8963E5A7020A05EFD0DB
:103A5000C1522A898144638734031C6033079A006A
:103A60008345070083B787FEA297E87BEFE06FBA34
:103A700021A0EFD0F1413DA093972400CA9788C3BD
:103A80008504D1BF2686CA852285EFF0BFE04A852E
:103A9000EFD0113351BFAA844A852EE4EFD05132C2
:103AA000A265268585476393F502EFD04FE21C603F
:103AB000854503B587FE2295EFD0FFF4EFD0613541
:103AC0002AE4EFD0EFE62265EF908374EFD02FE089
:103AD0001C60854503B587FE2295EFD0DFF2EFD05D
:103AE0002FE599B72AE4EFD0AFE4F1BF9C6183B72B
:103AF00087FEBE95FC751CE193B717002304F50003
:103B000082801D71A2E84EFC2A84AE89AA850A85AE
:103B100086ECA6E4CAE0EFE01FFF83470100CDC7B3
:103B20001C6083B787FEA29703B9870F6311090250
:103B3000EF00807985476397F506EFD04FD91C6079
:103B4000854503B587FE2295EFD0FFEB89A00808D5
:103B5000A285EFF0BFF91C6083B487FEA29426858E
:103B6000EFD0DFF3C26562662A87CE87A6864A85D4
:103B7000EF2050412EF42AF093F5F50FB1C51C60EB
:103B8000854503B587FE2295EFD09FE735A8EFD096
:103B900041282A84EFD0CFD90A85EFE0DFFB2285C8
:103BA000EF900367EFD0AFD21C60854503B587FE69
:103BB0002295EFD05FE5EFD0AFD739A02A84EFD0C0
:103BC0002FD7D9BF2A84C9BF0A85EFE0DFF8228545
:103BD000E6604664A6640669E279256182806FF03A
:103BE0005FF21C61130600042A8783B787FEAE8646
:103BF000AA979C4F93F7A7046385C7002146639655
:103C0000C70093950603C1913A856FF09FEF1C6141
:103C1000130600042A8783B787FEAE86AA979C4FB7
:103C200093F7A7046385C70021466396C700939561
:103C3000060281913A856FF0DFEC1D71A2E84EFC1F
:103C40002A84AE89AA850A8586ECA6E4CAE0EFE05C
:103C50009FEB83470100CDC71C6083B787FEA29707
:103C600003B9870F63110902EF0000668547639768
:103C7000F506EFD0CFC51C60854503B587FE2295BC
:103C8000EFD07FD889A00808A285EFF03FE61C603E
:103C900083B487FEA2942685EFD05FE0C26562669A
:103CA0002A87CE87A6864A85EF20F02E2EF42AF0AA
:103CB00093F5F50FB1C51C60854503B587FE2295C8
:103CC000EFD01FD435A8EFD0C1142A84EFD04FC64F
:103CD0000A85EFE05FE82285EF908353EFD02FBF96
:103CE0001C60854503B587FE2295EFD0DFD1EFD06C
:103CF0002FC439A02A84EFD0AFC3D9BF2A84C9BF4B
:103D00000A85EFE05FE52285E6604664A664066901
:103D1000E279256182806FF05FF26FF01FF2821509
:103D200081916FF09FF11D71A2E84EFC2A84AE894B
:103D3000AA850A8586ECA6E4CAE0EFE0DFDC8347CB
:103D40000100CDC71C6083B787FEA29703B9870F18
:103D500063110902EF00405785476397F506EFD0DE
:103D60000FB71C60854503B587FE2295EFD0BFC90C
:103D700089A00808A285EFF07FD71C6083B487FE76
:103D8000A2942685EFD09FD1C26562662A87CE872E
:103D9000A6864A85EF20F01D2EF42AF093F5F50F44
:103DA000B1C51C60854503B587FE2295EFD05FC580
:103DB00035A8EFD001062A84EFD08FB70A85EFE04F
:103DC0009FD92285EF90C344EFD06FB01C6085452A
:103DD00003B587FE2295EFD01FC3EFD06FB539A092
:103DE0002A84EFD0EFB4D9BF2A84C9BF0A85EFE097
:103DF0009FD62285E6604664A6640669E27925615D
:103E000082806FF05FF21D71A2E84EFC2A84AE89B9
:103E1000AA850A8586ECA6E4CAE0EFE0DFCE8347F8
:103E20000100CDC71C6083B787FEA29703B9870F37
:103E300063110902EF00404985476397F506EFD00B
:103E40000FA91C60854503B587FE2295EFD0BFBB47
:103E500089A00808A285EFF07FC91C6083B487FEA3
:103E6000A2942685EFD09FC3C26562662A87CE875B
:103E7000A6864A85EF2050132EF42AF093F5F50F0D
:103E8000B1C51C60854503B587FE2295EFD05FB7AD
:103E900035A8EFC011782A84EFD08FA90A85EFE00A
:103EA0009FCB2285EF90C336EFD06FA21C60854573
:103EB00003B587FE2295EFD01FB5EFD06FA739A0CD
:103EC0002A84EFD0EFA6D9BF2A84C9BF0A85EFE0C4
:103ED0009FC82285E6604664A6640669E27925618A
:103EE00082806FF05FF21D71A2E84EFC2A84AE89D9
:103EF000AA850A8586ECA6E4CAE0EFE0DFC0834726
:103F00000100CDC71C6083B787FEA29703B9870F56
:103F100063110902EF00403B85476397F506EFD038
:103F20000F9B1C60854503B587FE2295EFD0BFAD82
:103F300089A00808A285EFF07FBB1C6083B487FED0
:103F4000A2942685EFD09FB5C26562662A87CE8788
:103F5000A6864A85EF2070062EF42AF093F5F50F19
:103F6000B1C51C60854503B587FE2295EFD05FA9DA
:103F700035A8EFC0116A2A84EFD08F9B0A85EFE045
:103F80009FBD2285EF90C328EFD06F941C608545BC
:103F900003B587FE2295EFD01FA7EFD06F9939A008
:103FA0002A84EFD0EF98D9BF2A84C9BF0A85EFE0F1
:103FB0009FBA2285E6604664A6640669E2792561B7
:103FC00082806FF05FF21D71A2E8AA852A840A85BB
:103FD00022BC86ECA6E4CAE05304A522EFE0BFB2FF
:103FE00083470100D5C71C6083B787FEA29703B93A
:103FF000870F63110902EF00202D85476398F506AE
:10400000EFD0EF8C1C60854503B587FE2295EFD07D
:104010009F9F91A00808A285EFF05FAD1C6083B45C
:1040200087FEA2942685EFD07FA753058422C26520
:1040300062662A87A6864A85EF2040792EF42AF008
:1040400093F5F50FB1C51C60854503B587FE229534
:10405000EFD01F9B35A8EFC0D15B2A84EFD04F8DE6
:104060000A85EFE05FAF2285EF90831AEFD02F86AD
:104070001C60854503B587FE2295EFD0DF98EFD011
:104080002F8B39A02A84EFD0AF8AD9BF2A84C9BF29
:104090000A85EFE05FAC2285E6604664A6640669A7
:1040A0006234256182806FF01FF2530505426FF084
:1040B0009FF11D71A2E852F82A842E8AAA850A85EA
:1040C0004EFC86ECA6E4CAE0B289EFE0DFA38347AA
:1040D0000100D5C71C6083B787FEA29703B9870F7D
:1040E00063110902EF00401E85476398F506EFC093
:1040F0001FFE1C60854503B587FE2295EFD0BF905B
:1041000091A00808A285EFF07F9E1C6083B487FE13
:10411000A2942685EFD09F98C26562662A87D287CF
:104120004E88A6864A85EF20606B2EF42AF093F520
:10413000F50FB1C51C60854503B587FE2295EFD00C
:104140003F8C35A8EFC0F14C2A84EFC07FFE0A8572
:10415000EFE07FA02285EF90A30BEFC05FF71C601C
:10416000854503B587FE2295EFD0FF89EFC05FFC40
:1041700039A02A84EFC0DFFBD9BF2A84C9BF0A85D2
:10418000EFE07F9D2285E6604664A6640669E279D9
:10419000427A256182806FF0DFF11D71A2E84EFC4A
:1041A0002A84AE89AA850A8586ECA6E4CAE0EFE0F7
:1041B0009F9583470100CDC71C6083B787FEA297F8
:1041C00003B9870F63110902EF0000108547639759
:1041D000F506EFC0DFEF1C60854503B587FE22952D
:1041E000EFD07F8289A00808A285EFF03F901C6085
:1041F00083B487FEA2942685EFD05F8AC26562668B
:104200002A87CE87A6864A85EF20605E2EF42AF0A4
:1042100093F5F50FB1C51C60854503B587FE229562
:10422000EFD00FFE35A8EFC0D13E2A84EFC05FF07B
:104230000A85EFE05F922285EF80937DEFC03FE932
:104240001C60854503B587FE2295EFD0CFFBEFC0FC
:104250003FEE39A02A84EFC0BFEDD9BF2A84C9BF81
:104260000A85EFE05F8F2285E6604664A6640669F2
:10427000E279256182806FF05FF24111214506E409
:10428000EFC09FD6B74706009387075F4166B745E3
:1042900006001CE11306E65093858553EFC0F13309
:1042A0004111214506E4EFC03FD4B787060093874C
:1042B000877837160300B78506001CE11306866170
:1042C00093850576EFC071314111214506E4EFC0B9
:1042D000BFD1B78706009387076937160300B785F4
:1042E00006001CE1130626F593858566EFC0F12EC6
:1042F0004111214506E4EFC03FCFB7870600938701
:10430000076337160300B78506001CE1130606F2A3
:1043100093858560EFC0712C79712AE4414522F0C4
:1043200006F426ECEFC05FCCA2652A84EF0070187B
:1043300037260300B7950600130686FE93858595FC
:104340002285EFC09129AA842285EFC09FCD2685C2
:10435000EF80136C79712AE4414522F006F426ECD3
:10436000EFC09FC8A2652A84EF001018372603000B
:10437000B79506001306C600938585982285EFC081
:10438000D125AA842285EFC0DFC92685EF80536836
:1043900079712AE4414522F006F426ECEFC0DFC42F
:1043A000A2652A84EF00301637260300B795060071
:1043B0001306A6019385859B2285EFC01122AA844E
:1043C0002285EFC01FC62685EF80936479712AE4A9
:1043D000414522F006F426ECEFC01FC1A2652A84F5
:1043E000EF00501437260300B79506001306860227
:1043F0009385859E2285EFC0511EAA842285EFC039
:104400005FC22685EF80D36079712AE4414522F0AE
:1044100006F426ECEFC05FBDA2652A84EF0070129F
:1044200037260300B795060013066603938585A11A
:104430002285EFC0911AAA842285EFC09FBE2685EF
:10444000EF80135D597106F422F026EC00184AE85B
:10445000AA8418F023380403233C14030CE410E866
:1044600014EC1CF4EFE0A32F9307F520C19B33015C
:10447000F1400A89930505209306840026864A8523
:10448000233CD4FCEF1042194145EFC0FFB5CA856B
:10449000AA84EF00100B37260300B7950600130619
:1044A0006603938585A12685EFC031132A89268569
:1044B000EFC03FB74A85EF80B35579712AE4414593
:1044C00022F006F426ECEFC03FB2A2652A84EF008A
:1044D000300937260300B795060013064604938576
:1044E00085A42285EFC0710FAA842285EFC07FB317
:1044F0002685EF80F35179712AE4414522F006F4D4
:1045000026ECEFC07FAEA2652A84EF00D0083726E4
:104510000300B795060013068606938505A7228536
:10452000EFC0B10BAA842285EFC0BFAF2685EF8014
:10453000334E79712AE4414522F006F426ECEFC0AF
:10454000BFAAA2652A84EF00F00637260300B795BC
:10455000060013066607938505AA2285EFC0F107BA
:10456000AA842285EFC0FFAB2685EF80734A79715C
:104570002AE4414522F006F426ECEFC0FFA6A2652E
:104580002A84EF00100537260300B79506001306AE
:104590004608938505AD2285EFC03104AA842285A3
:1045A000EFC03FA82685EF80B346B7570600938734
:1045B00007AD130705041CE123340500233805006B
:1045C000233C05002320050223340502233805027D
:1045D000233C0502BA879306050C23B0070023B4D9
:1045E0000700C107E39BF6FEA1472320F50C78E501
:1045F0001305050D6FE07128938741A988431B07B8
:10460000150098C311258280011122E82A84614592
:1046100006EC2EE432E0EFC0F17A1C74A26502666B
:1046200008F4E26042641CE10CE510C9232A05008D
:1046300005618280397122F84AF052E806FC26F4BE
:104640004EEC9D472A842E89130A050463DDB70AC0
:10465000B707008093C7F7FF638BF5089B891500A8
:10466000B7250700938585A81395490032E4EFC06C
:10467000F110AA84226659C91387F9FFAA87FD564B
:1046800023B0070023B407007D17C107E31AD7FE44
:1046900081478326040C1B8707006864635DD7028B
:1046A0009396470036953387D4001461850714E349
:1046B000146514E7F9BF09CE233C04021305040373
:1046C000E2704274A2740279E269426A21618280D6
:1046D00023380402E5B709C563044501EFC0516EF4
:1046E0001315490064E42320340D2695D1BF1C51D5
:1046F000584D93E717001CD1F98FD5DF37550600C9
:10470000130505B139A8D284A149D9BF1C50584C12
:1047100093E717001CD0F98FD9DF37550600130532
:1047200005AEEFB01174011122E8007526E44AE0ED
:1047300006ECAA842E8905C41C641048A6854A8507
:1047400082970060CDBFEFC09F98EFC07F9ED5BF1E
:10475000FD576384F500EF80B32BEFC0EFDAE26022
:104760004264A264026905618280011122E82A8400
:10477000087506EC26E419C95C491B87F7FF58C980
:1047800091E70461EFC0C17F2685F5B723340402A9
:10479000E2604264A264056182804111B75706005D
:1047A000938707AD06E422E01CE181452A84EFF0FF
:1047B0009FF72285EFF07FFB68649307040463078B
:1047C000F50019C1EFC0D15F2334040C1305040DAB
:1047D0000264A26041016F000235411122E006E44B
:1047E0002A84EFF09FFB22850264A26041016FC022
:1047F00021799C65797122F026EC06F41CE59C6910
:104800002A84930404041CE99C4D1CCDDC4D5CCD32
:104810009C511CD19C7523B405021CF56865630787
:10482000950009C52EE4EFC0B159A265FC65138758
:1048300005046394E704A14764E42320F40C0147D2
:1048400013060008FC657464BA9703B8070088670C
:10485000BA9623B0070023B4070023B0060188E608
:104860004107E311C7FE1305040D0274A270E26450
:104870009385050D45616F00622BF8E57CE483A705
:10488000050C214723A0E50C2320F40CE9BF986513
:104890001C65797106F422F026EC18E598699CE510
:1048A0001C6918E9984D9CE91C4D18CDD84D9CCD3C
:1048B0005C4D58CD9851DCCD1C5118D198759CD1C8
:1048C0001C7518F5130605049CF57C65F865938640
:1048D00005046391C706631CD7069306050C83384D
:1048E000070003B80700906723B0170183388700DB
:1048F000C107410723BC17FF233807FF233CC7FE2E
:10490000E39FD7FC1304050D9384050D2800A285B1
:10491000EFF09173A6852285EF0042212C002685B9
:10492000EF00C2202800EF000220A2700274E264AF
:10493000456182806308D70478E5FCE503A7050C90
:104940008327050C2320E50C23A0F50C65BFAE875B
:10495000AA86130700049308000C3388E60003338B
:1049600008003386E70041072330660003388800DB
:1049700023340601E31317FFF867F8E613870704EB
:10498000F8E76DBFAA87AE86E9B72E8582802E85AF
:1049900082804111B757060022E0938787C006E462
:1049A0001CE12A844105EFF031398347840189C72E
:1049B000087819C1EFC0D14022850264A26041018C
:1049C0006FF09164411122E006E42A84EFF07FFC4D
:1049D00022850264A26041016FC0815A411122E028
:1049E00006E432846306B6000D8E3A85EFB03337A5
:1049F0002285A260026441018280411122E006E426
:104A000032846306B6000D8E3685EFB053352285AD
:104A1000A2600264410182804111B757060022E082
:104A200006E4938787C62A841CE14105EFF0D13064
:104A3000B75706009387076E1CE022850264A260C8
:104A400041016FF0715C411122E006E42A84EFF02D
:104A5000BFFC22850264A26041016FC06152B7575A
:104A60000600938787CE1CE16FF01FFB411122E007
:104A700006E42A84EFF0BFFE22850264A2604101B1
:104A80006FC00150697122F206F626EE4AEA2A84C6
:104A90008147130700101408BE962380F60085078F
:104AA000E39BE7FE1C6093049413100ABC670C0898
:104AB00026878146228582970549A30C2423130665
:104AC0000010A6850808EFB0532309C58947A30C39
:104AD000F42239A81C601307F1008546BC67130651
:104AE00011010C08228582978347F100E38027FF9C
:104AF000B2701274F2645269556182802D7122EA9B
:104B000006EE26E62A84814713070010B306F1005B
:104B10002380F6008507E39BE7FE1C609304940363
:104B200010029C7F8A85A686228582978547230C62
:104B3000F40213060010A6850A85EFB0131C01C508
:104B40008947230CF402F2605264B26415618280DA
:104B50000111B757060022E806EC26E4B335B00091
:104B6000938787C60CC51CE12A84EFF0516D08E8D5
:104B7000230C040022854264E260A26405616F0098
:104B8000227EB75706009387076EAA841CE0228511
:104B9000EFF091472685EF80A3670111B757060014
:104BA00006EC22E83336C000938787C62A8410C5F6
:104BB0001CE128002EE4EFF0911808E8230C040013
:104BC0002285EF00E279E260426405618280011192
:104BD00026E4AE84B28522E806EC2A844AE0EFF0AF
:104BE0003FF7B7570600938787CEB75506001CE0FE
:104BF000938585D52685EFC0731F31C1B755060053
:104C0000938505D62685EFC0731E15C913090401C7
:104C10004A85EFF071120146A6854A85EFF0110F23
:104C200022854264E260A264026905616F004273FA
:104C3000AA842285EFF05FDE2685EF80635DE26067
:104C40004264A26402690561828001112C0006ECB5
:104C5000EF80D07DE26005618280B7970600938780
:104C600087AF1CE1A10521056F90B028411122E01A
:104C7000A1052A84210506E4EF90F02C2285A2608C
:104C8000026441018280B7970600938707BC1CE14C
:104C9000A10521056F90F025411122E0A1052A848C
:104CA000210506E4EF90302A2285A26002644101CA
:104CB00082807971B797060022F006F426EC93877C
:104CC00087AF2A841CE130002105EF90106001A815
:104CD000AA842285EFB09F832685EF806353A2705C
:104CE0000274E26445618280411122E006E42A8474
:104CF000EFF03FFCB7970600938707B21CE0A26075
:104D0000026441018280411122E006E42A84EFF02E
:104D10005FFAB7970600938787B41CE0A26002642D
:104D200041018280411122E006E42A84EFF07FF8FD
:104D3000B7970600938707B71CE0A26002644101A1
:104D40008280411122E006E42A84EFF09FF6B797B3
:104D50000600938787B91CE0A2600264410182804B
:104D60007971B797060022F006F426EC938707BC0A
:104D70002A841CE130002105EF90305501A8AA8457
:104D80002285EFB0AFF82685EF808348A2700274C9
:104D9000E26445618280411122E006E42A84EFF05A
:104DA0003FFCB7970600938787BE1CE0A2600264B1
:104DB00041018280411122E006E42A84EFF05FFA8B
:104DC000B7970600938707C11CE0A2600264410107
:104DD0008280411122E006E42A84EFF07FF8B79741
:104DE0000600938787C31CE0A260026441018280B1
:104DF0008C6103B685FE6F10012DB777090093878C
:104E0000875C1CE182806F90D00E0111340006ECAB
:104E1000EF90B050E260056182806F90900D41117B
:104E200022E006E42A84EF9010122285A260026438
:104E3000410182806F8070619C611CE1B77709003D
:104E40009387875C9CE18280411122E006E42A84FA
:104E5000EF8040632285A2600264410182809C61F0
:104E6000011122E89C6F2A8406EC28008297A26533
:104E7000228503B685FEEF10012501A82A842800AB
:104E8000EF80B05C2285EF80A3382800EF80F05BD4
:104E90002285E260426405618280397122F826F43D
:104EA0004AF04EEC06FCAA892E8985441384F5FF4E
:104EB0003305940097000000E700000019C1850445
:104EC000C5BF1385840197000000E70000009387A9
:104ED000F4FF13048501232805001CE51CE1268648
:104EE000CA85228597000000E7000000E27023B029
:104EF00089004274A2740279E26921618280EFC064
:104F00000F9DEFB011712AE4EFC08FA22265EF80F0
:104F1000233017030000670000001703000067003C
:104F20000000411106E497000000E7000000A260C5
:104F3000130685FE556585451305A5C44101170374
:104F400000006700000021058280210582807971C0
:104F500026ECAE84B7A5060022F0938505B52A8419
:104F60000A8506F4EFF0FFD441468A852285970032
:104F70000000E70000002286A68513058400EFF0FC
:104F8000DFF10A85EFD04106A2700274E264456148
:104F900082802A840A85EFD021052285EF8043276D
:104FA00079714AE82E89B7A5060022F0938505B5E8
:104FB0002A840A8506F426ECEFF0BFCF41468A85A5
:104FC000228597000000E70000004A8593048400D2
:104FD00097000000E7000000AA8522862685EFF0F2
:104FE000DFEB0A85EFD04100A2700274E2644269EF
:104FF000456182802A840A85EFC0117F2285EF8077
:10500000232121056FF0FFF1411122E02A842105BF
:1050100006E4EFF01FF122850264A260410117034C
:105020000000670000002105170300006700000072
:10503000797126ECAE84B7A5060022F0938505B5FC
:105040002A840A8506F4EFF03FCA41468A85228504
:1050500097000000E70000002286A6851305840063
:10506000EFF0BFE30A85EFC0717AA2700274E264C8
:10507000456182802A840A85EFC051792285EF80BC
:10508000231979714AE82E89B7A5060022F0938585
:1050900005B52A840A8506F426ECEFF0FFC44146E4
:1050A0008A85228597000000E70000004A85930466
:1050B000840097000000E7000000AA85228626856C
:1050C000EFF0BFDD0A85EFC07174A2700274E26474
:1050D0004269456182802A840A85EFC03173228546
:1050E000EF80031321056FF0DFE3411122E02A84F2
:1050F000210506E4EFF0FFE222850264A26041018F
:105100001703000067000000797126ECAE84B7A594
:10511000060022F0938505B52A840A8506F4EFF08F
:105120009FBE41468A85228597000000E700000067
:105130002286A68513058400EFF03FD60A85EFC0CE
:10514000D16DA2700274E264456182802A840A856E
:10515000EFC0B16C2285EF80A30B79714AE82E89EC
:10516000B7A5060022F0938505B52A840A8506F4C2
:1051700026ECEFF05FB941468A8522859700000052
:10518000E70000004A859304840097000000E700D0
:105190000000AA8522862685EFF03FD00A85EFC061
:1051A000D167A2700274E2644269456182802A84F8
:1051B0000A85EFC091662285EF80830521056FF097
:1051C0005FD6411122E02A84210506E4EFF07FD565
:1051D00022850264A26041011703000067000000FD
:1051E000797126ECAE84B7A5060022F0938505B54B
:1051F0002A840A8506F4EFF0FFB241468A852285AB
:1052000097000000E70000002286A68513058400B1
:10521000EFF0BFC80A85EFC03161A2700274E2648A
:10522000456182802A840A85EFC011602285EF7073
:10523000337E79714AE82E89B7A5060022F093855E
:1052400005B52A840A8506F426ECEFF0BFAD414689
:105250008A85228597000000E70000004A859304B4
:10526000840097000000E7000000AA8522862685BA
:10527000EFF0BFC20A85EFC0315BA2700274E26436
:105280004269456182802A840A85EFC0F1592285EE
:10529000EF70137821056FF0DFC8411122E02A84F6
:1052A000210506E4EFF0FFC722850264A2604101F8
:1052B0001703000067000000797126ECAE84B7A5E3
:1052C000060022F0938505B52A840A8506F4EFF0DE
:1052D0005FA741468A85228597000000E70000000D
:1052E0002286A68513058400EFF03FBB0A85EFC038
:1052F0009154A2700274E264456182802A840A8516
:10530000EFC071532285EF70B37079714AE82E892E
:10531000B7A5060022F0938505B52A840A8506F410
:1053200026ECEFF01FA241468A85228597000000F7
:10533000E70000004A859304840097000000E7001E
:105340000000AA8522862685EFF03FB50A85EFC0CA
:10535000914EA2700274E2644269456182802A849F
:105360000A85EFC0514D2285EF70936A21056FF0D9
:105370005FBB411122E02A84210506E4EFF07FBAE9
:1053800022850264A260410117030000670000004B
:10539000797126ECAE84B7A5060022F0938505B599
:1053A0002A840A8506F4EFF0BF9B41468A85228550
:1053B00097000000E70000002286A6851305840000
:1053C000EFF0BFAD0A85EFC0F147A2700274E2644E
:1053D000456182802A840A85EFC0D1462285EF701C
:1053E000336379714AE82E89B7A5060022F09385C8
:1053F00005B52A840A8506F426ECEFF07F9641462F
:105400008A85228597000000E70000004A85930402
:10541000840097000000E7000000AA852286268508
:10542000EFF0BFA70A85EFC0F141A2700274E264F9
:105430004269456182802A840A85EFC0B140228595
:10544000EF70135D21056FF0DFAD411122E02A847A
:10545000210506E4EFF0FFAC22850264A260410161
:105460001703000067000000210517030000670014
:105470000000797126ECAE84B7A5060022F0938572
:1054800005B52A840A8506F4EFF0FF9041468A8527
:10549000228597000000E70000002286A6851305FC
:1054A0008400EFF09F9F0A85EFC0113CA270027448
:1054B000E264456182802A840A85EFC0F13A228540
:1054C000EF70135579714AE82E89B7A5060022F0CE
:1054D000938505B52A840A8506F426ECEFF0BF8B88
:1054E00041468A85228597000000E70000004A8532
:1054F0009304840097000000E7000000AA8522863C
:105500002685EFF09F990A85EFC01136A2700274CC
:10551000E2644269456182802A840A85EFC0D13401
:105520002285EF70F34E21056FF0BF9F411122E0FD
:105530002A84210506E4EFF0DF9E22850264A26042
:1055400041011703000067000000797126ECAE846A
:10555000B7A5060022F0938505B52A840A8506F4CE
:10556000EFF05F8541468A85228597000000E700BD
:1055700000002286A68513058400EFF01F920A859D
:10558000EFC0712FA2700274E264456182802A84A8
:105590000A85EFC0512E2285EF70934779714AE852
:1055A0002E89B7A5060022F0938505B52A840A85C1
:1055B00006F426ECEFF01F8041468A85228597008D
:1055C0000000E70000004A85930484009700000073
:1055D000E7000000AA8522862685EFF01F8C0A8549
:1055E000EFC07129A2700274E26442694561828051
:1055F0002A840A85EFC031282285EF707341210586
:105600006FF03F92411122E02A84210506E4EFF079
:105610005F9122850264A2604101170300006700C8
:105620000000797126ECAE84B7A5060022F09385C0
:1056300005B52A840A8506F4EFF0AFF941468A855C
:10564000228597000000E70000002286A68513054A
:105650008400EFF09F840A85EFC0D122A27002740B
:10566000E264456182802A840A85EFC0B1212285E7
:10567000EF70133A79714AE82E89B7A5060022F037
:10568000938505B52A840A8506F426ECEFF06FF4BD
:1056900041468A85228597000000E70000004A8580
:1056A0009304840097000000E7000000AA8522868A
:1056B0002685EFF08FFE0A85EFC0D11CA270027420
:1056C000E2644269456182802A840A85EFC0911BA9
:1056D0002285EF70F33321056FF0BF84411122E082
:1056E0002A84210506E4EFF0DF8322850264A260AC
:1056F000410117030000670000001C69C853828045
:105700001C69885782801C69A85382801C694111DA
:10571000FC5341019BD687001BD7070193F6F60F78
:1057200013F5F70FA2061377F70F4207558D9BD796
:105730008701E207598D5D8D82801C694111BC573C
:1057400041019BD687001BD7070193F6F60F13F58F
:10575000F70FA2061377F70F4207558D9BD78701E6
:10576000E207598D5D8D82801C69C85382801C6957
:10577000885782801C69A85382801C694111FC53A0
:1057800041019BD687001BD7070193F6F60F13F54F
:10579000F70FA2061377F70F4207558D9BD78701A6
:1057A000E207598D5D8D82801C694111BC57410112
:1057B0009BD687001BD7070193F6F60F13F5F70F5B
:1057C000A2061377F70F4207558D9BD78701E20793
:1057D000598D5D8D8280B7670600938707AC1CE109
:1057E0006FD0D169B7670600938787B21CE16FD08D
:1057F00091621C69A84782801C69E8478280B7577C
:1058000006009387877A1CE16FE0D174014582809E
:10581000014582808280014563FAC50093177500B7
:1058200065915D8D9C4191053E95FDB7828041114A
:10583000B767060022E006E4938787D11CE183471F
:1058400085092A848DC3086919C1EFB0715708789A
:1058500019C1EFB0F156286019C1EFB07156286830
:1058600019C1EFB0F15522850264A26041016FE0D9
:10587000B1794111B767060022E006E4938787D328
:105880001CE1834785092A848DC3086919C1EFB0DB
:105890003153087819C1EFB0B152286019C1EFB087
:1058A0003152286819C1EFB0B15122850264A2605B
:1058B00041016FE07175B7670600938707B91CE176
:1058C0006FE09174B7670600938707BC1CE16FE037
:1058D000B1734111B767060022E0938787D506E4CC
:1058E0001CE1834785142A8489CF086919C1EFB068
:1058F000314D087419C1EFB0B14C087C19C1EFB03B
:10590000314C22850264A26041016FE0F16FB7570C
:1059100006009387077F1CE16FE0116FB7670600F1
:10592000938787861CE16FE0316EB7670600938727
:10593000878C1CE16FE0516DB7670600938707BF46
:105940001CE16FE0716CB7670600938787C11CE1AB
:105950006FF09FFEB7670600938707C41CE16FE0F6
:10596000B16AB7670600938707C91CE16FF09FFE15
:10597000411122E006E42A84EFF07FEB22850264E5
:10598000A26041016FB0C15F411122E006E42A84A8
:10599000EFF03FEE22850264A26041016FB0415EEC
:1059A000411122E006E42A84EFF0FFE2228502643E
:1059B000A26041016FB0C15C411122E006E42A847B
:1059C000EFF05FE222850264A26041016FB0415BAB
:1059D000411122E006E42A84EFF0FFED2285026403
:1059E000A26041016FB0C159411122E006E42A844E
:1059F000EFF05FED22850264A26041016FB0415873
:105A0000411122E006E42A84EFF0BFEC2285026413
:105A1000A26041016FB0C156411122E006E42A8420
:105A2000EFF0FFDD22850264A26041016FB04155B5
:105A3000411122E006E42A84EFF07FED2285026422
:105A4000A26041016FB0C153411122E006E42A84F3
:105A5000EFF0DFEC22850264A26041016FB0415299
:105A6000411122E006E42A84EFF03FEC2285026433
:105A7000A26041016FB0C150411122E006E42A84C6
:105A8000EFF09FEB22850264A26041016FB0414FAD
:105A9000411122E006E42A84EFF0FFEA2285026445
:105AA000A26041016FB0C14D411122E006E42A8499
:105AB000EFF05FEA22850264A26041016FB0414CC1
:105AC000411122E006E42A84EFF0BFE92285026456
:105AD000A26041016FB0C14A9C69011122E806EC45
:105AE0008C6B30002A84EF80507E2285E260426415
:105AF000056182809C69011122E806EC8C6B300004
:105B00002A84EF80907C2285E26042640561828075
:105B10009C69011130008C6B22E806EC2A84EF802E
:105B2000D07A2285E2604264056182809C6901111D
:105B300022E806EC8C7B30002A84EF10316C228541
:105B4000E2604264056182809C69011122E806ECF2
:105B5000AC6330002A84EF10716A2285E2604264EF
:105B6000056182809C69011122E806ECAC6B300073
:105B70002A84EF10B1682285E26042640561828068
:105B80009C69011122E806EC8C7B30002A84EF101E
